:020000040800F2
:1000000000280020E9010008390200083902000830
:100010003902000839020008390200080000000017
:10002000000000000000000000000000390200088D
:1000300039020008000000003902000839020008F7
:1000400039020008390200083902000839020008A4
:100050003902000839020008390200083902000894
:100060003902000839020008390200083902000884
:100070003902000839020008390200083902000874
:100080003902000839020008390200083902000864
:100090003902000839020008390200083902000854
:1000A0003902000839020008390200083902000844
:1000B0003902000839020008390200083902000834
:1000C0003902000839020008390200083902000824
:1000D0003902000839020008390200083902000814
:1000E0003902000839020008000000003902000847
:1000F00039020008390200083902000839020008F4
:1001000039020008390200083902000839020008E3
:1001100039020008390200083902000839020008D3
:1001200039020008390200083902000839020008C3
:1001300010B5054C237833B9044B13B10448AFF321
:1001400000800123237010BD0C000020000000007F
:100150008402000808B5034B1BB103490348AFF301
:10016000008008BD0000000010000020840200088C
:1001700080B483B000AF194B1A68136843F00403CE
:100180001360174B1B6800221A60154B1A6813681E
:1001900043F400131360134B1A68136843F40053BD
:1001A000136000237B6002E07B6801337B607B6827
:1001B0004CF24F329342F7DD0A4B1A6813686FF323
:1001C0004D33136000237B6002E07B6801337B606A
:1001D0007B684CF24F329342F7DDDCE700000020F1
:1001E00004000020080000200D488546AFF3008081
:1001F0000C480D490D4A002302E0D458C450043382
:10020000C4188C42F9D30A4A0A4C002301E0136057
:100210000432A242FBD300F011F8FFF7A9FFFEE77A
:1002200000280020000000200C000020A40200088C
:100230000C00002028000020FEE7000070B500251B
:100240000C4E0D4CA41BA410A54209D100F01AF8C5
:1002500000250A4E0A4CA41BA410A54205D170BD6E
:1002600056F8253098470135EEE756F8253098477F
:100270000135F2E79C0200089C0200089C0200087D
:10028000A0020008F8B500BFF8BC08BC9E46704745
:0C029000F8B500BFF8BC08BC9E467047E3
:04029C005501000800
:0402A0003101000820
:0C02A40018100240040801400C08014042
:04000005080001E905
:00000001FF
