:020000040800F2
:1000000000280020AD0100084D010008590100083A
:100010005F010008650100086B0100080000000096
:100020000000000000000000000000007101000856
:100030007D0100080000000089010008950100080A
:10004000F5010008F5010008F5010008F5010008B8
:10005000F5010008F5010008F5010008F5010008A8
:10006000F5010008F5010008F5010008F501000898
:10007000F5010008F5010008F5010008F501000888
:10008000F5010008F5010008F5010008F501000878
:10009000F5010008F5010008F5010008F501000868
:1000A000F5010008F5010008F5010008F501000858
:1000B000F5010008F501000800000000F501000846
:1000C000F50100080000000000000000F501000834
:1000D00000000000F5010008F50100080000000024
:1000E000F5010008F5010008F50100080000000016
:1000F0000000000000000000000000000000000000
:0C01000000000000000000005FF808F1A3
:10010C0010B5054C237833B9044B13B10448AFF345
:10011C0000800123237010BD0400002000000000AB
:10012C00AC03000808B5034B1BB103490348AFF3FC
:10013C00008008BD0000000008000020AC0300088F
:10014C0080B400AF00BFBD4680BC704780B400AF28
:10015C00FEE780B400AFFEE780B400AFFEE780B4EA
:10016C0000AFFEE780B400AF00BFBD4680BC704757
:10017C0080B400AF00BFBD4680BC704780B400AFF8
:10018C0000BFBD4680BC704780B500AF00F0D2F810
:10019C0000BF80BD80B400AF00BFBD4680BC7047BF
:1001AC00002103E00B4B5B58435004310A480B4BC6
:1001BC0042189A42F6D30A4A02E0002342F8043B62
:1001CC00084B9A42F9D3FFF7E5FF00F0C5F800F0B1
:1001DC0081F87047CC0300080000002004000020C8
:1001EC000400002024000020FEE7000080B400AFD3
:1001FC00074B1B68064A43F004031360044B1B684F
:10020C00034A43F00803136000BFBD4680BC70472F
:10021C001810024080B400AF1B4B00221A601B4B1D
:10022C001B681A4A23F0F0031360184B1B68174A1B
:10023C0043F040031360164B1B68154A23F47003FC
:10024C001360134B1B68124A43F480031360114B69
:10025C001B68104A23F0F00313600E4B1B680D4A09
:10026C0043F0100313600C4B1B680B4A23F4700310
:10027C001360094B1B68084A43F48013136000BFDA
:10028C00BD4680BC704700BF0C080140000801400F
:10029C0004080140000C0140040C014080B485B0FE
:1002AC0000AF78600023FB600BE00023BB6002E032
:1002BC00BB680133BB60BB68FE2BF9D9FB6801330B
:1002CC00FB60FA687B689A42EFD300BF1437BD46D7
:1002DC0080BC704780B500AFFFF788FFFFF79AFF2F
:1002EC00124B1B6803F00203002B0CD1104B1B6844
:1002FC000F4A83F00203136000BF0C4B1B6803F022
:10030C000203002BF9D0094B1B685B0B03F00103B4
:10031C00012B05D1064B1B68054A83F4005313606F
:10032C004FF49670FFF7BAFFDAE700BF08080140F8
:10033C000C0C014080B400AF054B1B781A46054BE2
:10034C001B681344034A136000BFBD4680BC704752
:10035C00000000202000002070B500250C4E0D4C34
:10036C00A41BA410A54209D100F01AF800250A4ECE
:10037C000A4CA41BA410A54205D170BD56F825301B
:10038C0098470135EEE756F8253098470135F2E7E6
:10039C00C4030008C4030008C4030008C803000811
:1003AC00F8B500BFF8BC08BC9E467047F8B500BF56
:0803BC00F8BC08BC9E46704726
:0403C40031010008FB
:0403C8000D0100081B
:0403CC00010000002C
:04000005080001AD41
:00000001FF
